:107000000C9434380C9451380C9451380C945138F9
:107010000C9451380C9451380C9451380C945138CC
:107020000C9451380C9451380C9451380C945138BC
:107030000C9451380C9451380C9451380C945138AC
:107040000C9451380C9451380C9451380C9451389C
:107050000C9451380C9451380C9451380C9451388C
:107060000C9451380C94513811241FBECFEFD8E046
:10707000DEBFCDBF12E0A0E0B1E0EAE6FAE702C071
:1070800005900D92AE32B107D9F715E0AEE2B2E04D
:1070900001C01D92AE32B107E1F70E94CA3C0C94C8
:1070A000333D0C940038813011F45A9A08958823A6
:1070B00009F45A980895CF92DF92EF92FF920F93BE
:1070C0001F93DF93CF93CDB7DEB72A970FB6F8940F
:1070D000DEBF0FBECDBFFE0131969AE0DF011D92EB
:1070E0009A95E9F791E09A87FE01329620E030E028
:1070F000482F50E0CA01022E02C0959587950A9448
:10710000E2F7817081932F5F3F4F2830310591F76F
:107110008E010F5F1F4F90EDC92ED12C8BE0E82E12
:10712000F12CEC0EFD1EF80181918F010E94533865
:10713000C6010197F1F70E151F05A9F780EA91E046
:107140000197F1F72A960FB6F894DEBF0FBECDBFB8
:10715000CF91DF911F910F91FF90EF90DF90CF9033
:1071600008958F929F92BF92CF92DF92EF92FF92FB
:107170000F931F93DF93CF93CDB7DEB72A970FB648
:10718000F894DEBF0FBECDBF611571058105910575
:1071900019F07B018C0106C080E30E945B38EE246D
:1071A000FF248701BB244E010894811C911C19C047
:1071B000C80CD91CC801B7012AE030E040E050E01B
:1071C0000E94113DF6016083C801B7012AE030E05A
:1071D00040E050E00E94113DC901DA017C018D01BF
:1071E000B394CB2CDD24E114F1040105110501F762
:1071F00084010C0D1D1D05C0F8018081805D0E9479
:107200005B38015010400C171D07B1F72A960FB6D6
:10721000F894DEBF0FBECDBFCF91DF911F910F91CC
:10722000FF90EF90DF90CF90BF909F908F90089548
:1072300088E18093600088E080936000FFCFF8943D
:1072400014BEE0E6F0E080818861808310820895BA
:107250009B01AC01F89414BE80916000886180931A
:1072600060001092600060E271EA87E090E00E94A6
:10727000113D215030403093C5002093C40088E177
:107280008093C10086E08093C20088EE93E028ECF2
:1072900030E0F9013197F1F70197D9F70895982F68
:1072A0008091C00085FFFCCF9093C6000895809127
:1072B000C00087FFFCCF8091C60008950F931F93F5
:1072C000082F21E030E040E050E010E00BC0CA01A0
:1072D000B9012AE030E040E050E00E94E63C9B012A
:1072E000AC011F5F101798F3B901CA011F910F91EC
:1072F00008950F931F93CF93DF93DA010FB7F8949C
:10730000F999FECFAB0183E0FB0180935700E8952C
:1073100007B600FCFDCFFA0111E0BA0160587F4FBB
:107320008C9111963C91119720E0E901C80FD11D75
:1073300012960E0110935700E89511243296E61725
:10734000F70771F785E0FA0180935700E89507B6D3
:1073500000FCFDCF81E180935700E8950FBFDF91DE
:10736000CF911F910F9108952F923F924F925F926C
:107370006F927F928F929F92AF92BF92CF92DF9245
:10738000EF92FF920F931F93DF93CF9300D0CDB76F
:10739000DEB77B018C012DB63EB661157105810506
:1073A000910509F46DC029823EB73A8366242AE02C
:1073B00030E040E050E00E94113DC901DA01BC011B
:1073C000CD016394611571058105910581F7862DC5
:1073D00090E0EDB7FEB7E81BF90B0FB6F894FEBFCF
:1073E0000FBEEDBF4DB65EB60894411C511C6C013A
:1073F0000894C108D1085201AC0CBD1C7E2C8F2C06
:10740000902E21C0672D782D892D912F2AE030E014
:1074100040E050E00E94113D605DF5016083672D02
:10742000782D892D912F2AE030E040E050E00E9435
:10743000113D722E832E942E152F0894C108D10869
:107440000894A108B108FFEFCF16FFEFDF06D1F6D1
:1074500090E00BC0F201E90FF11DE0818091C000C6
:1074600085FFFCCFE093C6009F5F961598F3898156
:107470009A819C010FB6F8943EBF0FBE2DBF07C086
:107480008091C00085FFFCCF80E38093C6000FB6DB
:10749000F8943EBE0FBE2DBE0F900F90CF91DF919E
:1074A0001F910F91FF90EF90DF90CF90BF90AF9022
:1074B0009F908F907F906F905F904F903F902F9014
:1074C00008959C01DC010D900020E9F71197A81B9D
:1074D000B90B90E00AC0E20FF31F40818091C00019
:1074E00085FFFCCF4093C6009F5FE92FF0E0EA17CD
:1074F000FB0788F30895DF92EF92FF920F931F939B
:10750000D82E7A018B0180E091E00E94613A80E2FE
:107510009EE428EC30E0F9013197F1F70197D9F7B3
:107520008CE291E00E94613A8D2D6AE00E94053D57
:1075300090E0895B9F4FAA2797FDA095BA2FBC01C9
:10754000CD010E94B43988E391E00E94613A80E263
:107550009EE428EC30E0F9013197F1F70197D9F773
:107560008BE391E00E94613AC801B7010E94B439EF
:107570008AE491E00E94613A6D2D70E080E090E035
:107580000E94B43983E591E00E94613A81E691E07E
:107590000E94613A82E791E00E94613A1F910F9147
:1075A000FF90EF90DF9008952F923F924F925F925D
:1075B0007F928F929F92AF92BF92CF92DF92EF9283
:1075C000FF920F931F93DF93CF93CDB7DEB76097F2
:1075D0000FB6F894DEBF0FBECDBF4FE45AE56DE0A5
:1075E00070E021E631E00E947B3A40E050E0BE01CD
:1075F0006F5F7F4F8091C00087FFFCCF8091C600F6
:107600008535C1F78091C00087FFFCCF8091C6000F
:107610008435C1F78091C00087FFFCCF8091C60000
:107620008334C1F78091C00087FFFCCF8091C600F2
:107630008C32C1F78091C00087FFFCCF8091C600DB
:107640008C32C1F790E09A01220F331F240F351FAF
:10765000220F331F8091C00087FFFCCF8091C600AE
:107660008A3049F0F901E90FF11DE25DFD4F8053C9
:1076700080839F5FEFCFFB01E40FF51F90834F5F87
:107680005F4F4031510509F0B5CF4EE2442E44E042
:10769000542EAA24BB241E010894211C311C2EC088
:1076A000F8017080992461E070E080E090E007C00C
:1076B0002AE030E040E050E00E94E63C93949814C9
:1076C000B8F3272D30E040E050E00E94E63CC60EC3
:1076D000D71EE81EF91E8A940F5F1F4FFFEF8F160B
:1076E000F9F6F201C192D192E192F1922F01089440
:1076F000A11CB11CF0E1AF16B10491F0F101EA0D4B
:10770000FB1D80808A948501000F111F0A0D1B1D2F
:10771000000F111F025D1D4FCC24DD247601DECF4A
:1077200060960FB6F894DEBF0FBECDBFCF91DF914C
:107730001F910F91FF90EF90DF90CF90BF90AF908F
:107740009F908F907F905F904F903F902F900895E3
:1077500080E891E00E94613A80E197E228EC30E015
:10776000F9013197F1F70197D9F78CE891E00E9480
:10777000613A87E991E00E94613A84EA91E00E94CF
:10778000613A88EA91E00E94613A85EB91E00E94BB
:10779000613A8FEF9FEF28EC30E0F9013197F1F774
:1077A0000197D9F789EB91E00E94613A80E197E275
:1077B00028EC30E0F9013197F1F70197D9F70895F6
:1077C000FF920F931F93CF93DF938C0188EC90E08F
:1077D0000197F1F7529AFF2406C0C00FD11F88818C
:1077E0000E945B38F394CF2DD0E0F8010190002087
:1077F000E9F73197E01BF10BCE17DF0770F35298D2
:10780000DF91CF911F910F91FF9008956F927F921A
:107810009F92AF92BF92CF92DF92EF92FF920F931F
:107820001F93CF93DF9385EC91E00E94E03B87ECC0
:1078300091E00E94E03B82ED91E00E94E03B9924C0
:10784000AA24BB2488EC682E712C9394892D0E9465
:10785000D43A85ED91E00E94E03BE501C255DC4F52
:107860000EE2C02E04E0D02EF601E190F1900191DD
:1078700011916F01C801B70128EE33E040E050E0FC
:107880000E94113D2883C801B70128EE33E040E093
:1078900050E00E94113D69832296FEE6CF16F4E087
:1078A000DF0611F780E29EE4F3013197F1F70197CB
:1078B000D9F780E290E0A80EB91E94E0991629F657
:1078C00060E070E080E090E04EEA53E00E94793999
:1078D00015E0912EAA24BB24B8EC6B2E712C892DB7
:1078E0000E94D43A85ED91E00E94E03BE501C2554B
:1078F000DC4FAEE2CA2EA4E0DA2EF601E190F19060
:10790000019111916F01C801B70128EE33E040E009
:1079100050E00E94113D2883C801B70128EE33E0F2
:1079200040E050E00E94113D69832296FEE6CF16AA
:10793000F4E0DF0611F780E29EE4F3013197F1F7FE
:107940000197D9F7939480E290E0A80EB91E99E0D0
:10795000991629F687ED91E00E94E03B60E870E01F
:1079600080E090E04EEA53E00E94793989ED91E0A1
:107970000E94E03B0C940000DF91CF911F910F918A
:10798000FF90EF90DF90CF90BF90AF909F907F904F
:107990006F90089560E875E280E090E00E942839D9
:1079A00020E533EC48EC50E0CA010197F1F7215093
:1079B0003040D1F788EC90E00197F1F7529A86E0D9
:1079C00092E00E94E03B0E94063CFFCF629FD00104
:1079D000739FF001829FE00DF11D649FE00DF11D8A
:1079E000929FF00D839FF00D749FF00D659FF00D39
:1079F0009927729FB00DE11DF91F639FB00DE11D26
:107A0000F91FBD01CF0111240895991B79E004C02D
:107A1000991F961708F0961B881F7A95C9F78095CD
:107A20000895A1E21A2EAA1BBB1BFD010DC0AA1FBF
:107A3000BB1FEE1FFF1FA217B307E407F50720F0D7
:107A4000A21BB30BE40BF50B661F771F881F991F52
:107A50001A9469F760957095809590959B01AC019B
:0A7A6000BD01CF010895F894FFCF97
:107A6A0041542B43495053544152543D225443509C
:107A7A00222C226170692E7468696E677370656161
:107A8A006B2E636F6D222C38300D0A0041542B4344
:107A9A00495053454E443D000D0A00474554202F96
:107AAA006368616E6E656C732F002F6669656C641E
:107ABA00732F002E6373763F6170695F6B65793D42
:107ACA00005951374E5A3556515937445A4F38434F
:107ADA00480026726573756C74733D31360D0A0061
:107AEA0041542B43574D4F44453D330041542B439A
:107AFA00574A41503D22004661726964204F6E6CBC
:107B0A00696E6500222C22002346415249444D45A4
:107B1A003331323400220D0A0041542B4349504D6F
:107B2A0055583D30000A007C3D3D3D3D3D3D3D3DC3
:107B3A007C000A7C003D007C000A50726F6772610B
:107B4A006D20646F776E6C6F616420636F6D706C0B
:107B5A00657465210A4A756D70696E6720746F20B5
:107B6A00617070210A000A0A0A446F776E6C6F61AD
:107B7A0064696E67206669726D77617265206672E4
:0E7B8A006F6D20696E7465726E6574210A005D
:040000030000700089
:00000001FF
